:020000040000FA
:020000001028C6
:10000800FE00030EF0000408F1000A08F200831253
:1000180003137F08F300D52811280D22B900831394
:10002800A0308400DC300522F701F801F9018301D2
:100038007D282408250403196D28A701A80110307C
:10004800AB002730AC002C08A1002B08A000250825
:10005800A3002408A2004E212108AA002008A90014
:1000680029082A0403192708031957282908303EA4
:10007800FF00260884007F08831380000130FF00FA
:100088007F08A6072A08A1002908A0002C08A300B9
:100098002B08A2008A212008A4022108031CA5031A
:1000A800A502A701A70A0A30A0000030A1002C0869
:1000B800A3002B08A2004E212108AC002008AB00A9
:1000C8000130FF007F08A8070530280203187828A8
:1000D80027283030FF00260884007F08831380001B
:1000E8000130FF007F08A6072608840083138001DB
:1000F80008008B170B171F149F141F15F821C42114
:10010800EA21D721073083120313AF005830AE001D
:100118005930AD00AD0B8E28AE0B8E28AF0B8E2854
:1001280000000130F4008030F500AB2183160C1478
:10013800CE28B601B701B8013808A03E8400831361
:100148000008AD00AE012D08B6070318B70A2E083F
:10015800B7070130FF007F08B8073C303802031C9E
:10016800A0281930F4008030F500AB213708A5002D
:100178003608A4003030FF007F08A6001D2030306C
:10018800F4000030F500AB211730F4008030F500A2
:10019800AB21B901831203133908031D9D28000000
:1001A800CE288B1CDC280130FF007F08F9078B1054
:1001B8000C1C00290B308F00DC308E000C10013035
:1001C800FF007F08F70705307702031C00293C3041
:1001D8007802031CF028F8017908FF007808A03E8F
:1001E80084007F08831380000130FF007F08F80730
:1001F800F901F701B901B90A8C1E0729981C0629CB
:10020800181218168C127308FF0072088A007108F9
:100218008400700E8300FE0E7E0E0900FF1B1C2951
:1002280083137F1883170008840A0319FF0A08003C
:1002380001308A000408840A820700345034693483
:10024800633454346134633468346F346D346534E2
:1002580074346534723420347234653461346434EF
:1002680079342E342E342E340A340034453476341E
:1002780065346E34743473342034703465347234B5
:1002880020346D3469346E347534743465343A34DA
:1002980020340034F501F6012008210403198529CA
:1002A800F401F40AA11B642901300310A00DA10D6B
:1002B800FF3E031D59290130FF007F08F407562926
:1002C80001300310F50DF60DFF3E031D65292108C9
:1002D8002302031D712920082202031C7A29200801
:1002E800A2022108031CA303A30275140130031002
:1002F800A10CA00CFF3E031D7B290130F402031D55
:1003080064297608A1007508A0000800F401F50129
:10031800201C94292208F4070318F50A2308F50776
:1003280001300310A20DA30DFF3E031D95290130D6
:100338000310A10CA00CFF3E031D9C2920082104DA
:10034800031D8C297508A1007408A0000800750811
:1003580083120313FF00740884001221003A031962
:1003680008000C1EB5297508FF00740884001221C6
:1003780099000130F4070318F50A0030F507AB2996
:10038800861406150A309900181518128312981742
:10039800831618138312181383160C128C169816CA
:1003A8008312181608000614F901F4017408A03E17
:1003B800840080010130FF007F08F4073C3074029C
:1003C800031CDA29F801F7010B1608001014901025
:1003D80010159011901610160B308F00DC308E001F
:1003E8000C1083160C1008008316051085100511D3
:1003F80085110512851686110612861206138613B4
:10040800080064008001840A040603190034040605
:04041800062A01347B
:02400E004A3F27
:00000001FF
